{
  "contractName": "HotelKamer",
  "abi": [
    {
      "inputs": [],
      "stateMutability": "nonpayable",
      "type": "constructor"
    },
    {
      "anonymous": false,
      "inputs": [
        {
          "indexed": true,
          "internalType": "address",
          "name": "previousOwner",
          "type": "address"
        },
        {
          "indexed": true,
          "internalType": "address",
          "name": "newOwner",
          "type": "address"
        }
      ],
      "name": "OwnershipTransferred",
      "type": "event"
    },
    {
      "inputs": [],
      "name": "kamer",
      "outputs": [
        {
          "internalType": "uint256",
          "name": "Nummer",
          "type": "uint256"
        },
        {
          "internalType": "enum HotelKamer.KamerStatus",
          "name": "Status",
          "type": "uint8"
        },
        {
          "internalType": "uint256",
          "name": "Prijs",
          "type": "uint256"
        },
        {
          "internalType": "uint256",
          "name": "AantalGeboekteDagen",
          "type": "uint256"
        },
        {
          "internalType": "address",
          "name": "Boeker",
          "type": "address"
        }
      ],
      "stateMutability": "view",
      "type": "function"
    },
    {
      "inputs": [],
      "name": "owner",
      "outputs": [
        {
          "internalType": "address",
          "name": "",
          "type": "address"
        }
      ],
      "stateMutability": "view",
      "type": "function"
    },
    {
      "inputs": [],
      "name": "renounceOwnership",
      "outputs": [],
      "stateMutability": "nonpayable",
      "type": "function"
    },
    {
      "inputs": [
        {
          "internalType": "address",
          "name": "newOwner",
          "type": "address"
        }
      ],
      "name": "transferOwnership",
      "outputs": [],
      "stateMutability": "nonpayable",
      "type": "function"
    },
    {
      "inputs": [
        {
          "internalType": "uint256",
          "name": "_prijs",
          "type": "uint256"
        }
      ],
      "name": "ZetPrijs",
      "outputs": [],
      "stateMutability": "nonpayable",
      "type": "function"
    },
    {
      "inputs": [],
      "name": "ZetGeboekt",
      "outputs": [],
      "stateMutability": "nonpayable",
      "type": "function"
    },
    {
      "inputs": [],
      "name": "ZetVrij",
      "outputs": [],
      "stateMutability": "nonpayable",
      "type": "function"
    },
    {
      "inputs": [],
      "name": "Reset",
      "outputs": [],
      "stateMutability": "nonpayable",
      "type": "function"
    },
    {
      "inputs": [],
      "name": "MaakBoeking",
      "outputs": [],
      "stateMutability": "payable",
      "type": "function"
    },
    {
      "inputs": [],
      "name": "ToonBalans",
      "outputs": [
        {
          "internalType": "uint256",
          "name": "",
          "type": "uint256"
        }
      ],
      "stateMutability": "view",
      "type": "function"
    },
    {
      "inputs": [],
      "name": "Uitbetaling",
      "outputs": [],
      "stateMutability": "nonpayable",
      "type": "function"
    },
    {
      "inputs": [],
      "name": "OpenDeur",
      "outputs": [],
      "stateMutability": "nonpayable",
      "type": "function"
    }
  ],
  "bytecode": "0x608060405234801561001057600080fd5b5060006100216100d260201b60201c565b9050806000806101000a81548173ffffffffffffffffffffffffffffffffffffffff021916908373ffffffffffffffffffffffffffffffffffffffff1602179055508073ffffffffffffffffffffffffffffffffffffffff16600073ffffffffffffffffffffffffffffffffffffffff167f8be0079c531659141344cd1fd0a4f28419497f9722a3daafe3b4186f6b6457e060405160405180910390a3506100cd6100da60201b60201c565b610232565b600033905090565b6100e86100d260201b60201c565b73ffffffffffffffffffffffffffffffffffffffff166000809054906101000a900473ffffffffffffffffffffffffffffffffffffffff1673ffffffffffffffffffffffffffffffffffffffff16146101a9576040517f08c379a00000000000000000000000000000000000000000000000000000000081526004018080602001828103825260208152602001807f4f776e61626c653a2063616c6c6572206973206e6f7420746865206f776e657281525060200191505060405180910390fd5b60006001800160006101000a81548160ff021916908360028111156101ca57fe5b021790555067016345785d8a0000600160020181905550600060016003018190555030600160040160006101000a81548173ffffffffffffffffffffffffffffffffffffffff021916908373ffffffffffffffffffffffffffffffffffffffff160217905550565b61132e806102416000396000f3fe6080604052600436106100a75760003560e01c80637a0d768d116100645780637a0d768d1461016e5780638da5cb5b146101ef578063c0f09e1b14610246578063c559e54b1461025d578063cd4593c314610267578063f2fde38b1461027e576100a7565b8063389dd05b146100ac5780634ddfcaf7146100d7578063534c6e4f146100ee5780636423db34146101295780636dd013b514610140578063715018a614610157575b600080fd5b3480156100b857600080fd5b506100c16102cf565b6040518082815260200191505060405180910390f35b3480156100e357600080fd5b506100ec6103a0565b005b3480156100fa57600080fd5b506101276004803603602081101561011157600080fd5b810190808035906020019092919050505061053b565b005b34801561013557600080fd5b5061013e610611565b005b34801561014c57600080fd5b50610155610763565b005b34801561016357600080fd5b5061016c6108db565b005b34801561017a57600080fd5b50610183610a63565b6040518086815260200185600281111561019957fe5b60ff1681526020018481526020018381526020018273ffffffffffffffffffffffffffffffffffffffff1673ffffffffffffffffffffffffffffffffffffffff1681526020019550505050505060405180910390f35b3480156101fb57600080fd5b50610204610ab4565b604051808273ffffffffffffffffffffffffffffffffffffffff1673ffffffffffffffffffffffffffffffffffffffff16815260200191505060405180910390f35b34801561025257600080fd5b5061025b610add565b005b610265610bce565b005b34801561027357600080fd5b5061027c610d6c565b005b34801561028a57600080fd5b506102cd600480360360208110156102a157600080fd5b81019080803573ffffffffffffffffffffffffffffffffffffffff169060200190929190505050610e5d565b005b60006102d961106a565b73ffffffffffffffffffffffffffffffffffffffff166000809054906101000a900473ffffffffffffffffffffffffffffffffffffffff1673ffffffffffffffffffffffffffffffffffffffff161461039a576040517f08c379a00000000000000000000000000000000000000000000000000000000081526004018080602001828103825260208152602001807f4f776e61626c653a2063616c6c6572206973206e6f7420746865206f776e657281525060200191505060405180910390fd5b47905090565b6000600160030154116103fe576040517f08c379a000000000000000000000000000000000000000000000000000000000815260040180806020018281038252602381526020018061128d6023913960400191505060405180910390fd5b600160040160009054906101000a900473ffffffffffffffffffffffffffffffffffffffff1673ffffffffffffffffffffffffffffffffffffffff163373ffffffffffffffffffffffffffffffffffffffff16146104a7576040517f08c379a00000000000000000000000000000000000000000000000000000000081526004018080602001828103825260238152602001806112d66023913960400191505060405180910390fd5b6104b76001600301546001611072565b600160030181905550600060016003015414156105395760006001800160006101000a81548160ff021916908360028111156104ef57fe5b021790555030600160040160006101000a81548173ffffffffffffffffffffffffffffffffffffffff021916908373ffffffffffffffffffffffffffffffffffffffff1602179055505b565b61054361106a565b73ffffffffffffffffffffffffffffffffffffffff166000809054906101000a900473ffffffffffffffffffffffffffffffffffffffff1673ffffffffffffffffffffffffffffffffffffffff1614610604576040517f08c379a00000000000000000000000000000000000000000000000000000000081526004018080602001828103825260208152602001807f4f776e61626c653a2063616c6c6572206973206e6f7420746865206f776e657281525060200191505060405180910390fd5b8060016002018190555050565b61061961106a565b73ffffffffffffffffffffffffffffffffffffffff166000809054906101000a900473ffffffffffffffffffffffffffffffffffffffff1673ffffffffffffffffffffffffffffffffffffffff16146106da576040517f08c379a00000000000000000000000000000000000000000000000000000000081526004018080602001828103825260208152602001807f4f776e61626c653a2063616c6c6572206973206e6f7420746865206f776e657281525060200191505060405180910390fd5b60006001800160006101000a81548160ff021916908360028111156106fb57fe5b021790555067016345785d8a0000600160020181905550600060016003018190555030600160040160006101000a81548173ffffffffffffffffffffffffffffffffffffffff021916908373ffffffffffffffffffffffffffffffffffffffff160217905550565b61076b61106a565b73ffffffffffffffffffffffffffffffffffffffff166000809054906101000a900473ffffffffffffffffffffffffffffffffffffffff1673ffffffffffffffffffffffffffffffffffffffff161461082c576040517f08c379a00000000000000000000000000000000000000000000000000000000081526004018080602001828103825260208152602001807f4f776e61626c653a2063616c6c6572206973206e6f7420746865206f776e657281525060200191505060405180910390fd5b60003373ffffffffffffffffffffffffffffffffffffffff166108fc479081150290604051600060405180830381858888f193505050509050806108d8576040517f08c379a00000000000000000000000000000000000000000000000000000000081526004018080602001828103825260108152602001807f5472616e73666572206661696c65642e0000000000000000000000000000000081525060200191505060405180910390fd5b50565b6108e361106a565b73ffffffffffffffffffffffffffffffffffffffff166000809054906101000a900473ffffffffffffffffffffffffffffffffffffffff1673ffffffffffffffffffffffffffffffffffffffff16146109a4576040517f08c379a00000000000000000000000000000000000000000000000000000000081526004018080602001828103825260208152602001807f4f776e61626c653a2063616c6c6572206973206e6f7420746865206f776e657281525060200191505060405180910390fd5b600073ffffffffffffffffffffffffffffffffffffffff166000809054906101000a900473ffffffffffffffffffffffffffffffffffffffff1673ffffffffffffffffffffffffffffffffffffffff167f8be0079c531659141344cd1fd0a4f28419497f9722a3daafe3b4186f6b6457e060405160405180910390a360008060006101000a81548173ffffffffffffffffffffffffffffffffffffffff021916908373ffffffffffffffffffffffffffffffffffffffff160217905550565b60018060000154908060010160009054906101000a900460ff16908060020154908060030154908060040160009054906101000a900473ffffffffffffffffffffffffffffffffffffffff16905085565b60008060009054906101000a900473ffffffffffffffffffffffffffffffffffffffff16905090565b610ae561106a565b73ffffffffffffffffffffffffffffffffffffffff166000809054906101000a900473ffffffffffffffffffffffffffffffffffffffff1673ffffffffffffffffffffffffffffffffffffffff1614610ba6576040517f08c379a00000000000000000000000000000000000000000000000000000000081526004018080602001828103825260208152602001807f4f776e61626c653a2063616c6c6572206973206e6f7420746865206f776e657281525060200191505060405180910390fd5b60018060010160006101000a81548160ff02191690836002811115610bc757fe5b0217905550565b34600160020154811015610c4a576040517f08c379a000000000000000000000000000000000000000000000000000000000815260040180806020018281038252601f8152602001807f626574616c696e67206973206d696e6465722064616e206465207072696a730081525060200191505060405180910390fd5b60006002811115610c5757fe5b6001800160009054906101000a900460ff166002811115610c7457fe5b14610ce7576040517f08c379a00000000000000000000000000000000000000000000000000000000081526004018080602001828103825260128152602001807f4b616d6572206973206e696574207672696a000000000000000000000000000081525060200191505060405180910390fd5b60018060010160006101000a81548160ff02191690836002811115610d0857fe5b0217905550610d1c346001600201546110bc565b60016003018190555033600160040160006101000a81548173ffffffffffffffffffffffffffffffffffffffff021916908373ffffffffffffffffffffffffffffffffffffffff16021790555050565b610d7461106a565b73ffffffffffffffffffffffffffffffffffffffff166000809054906101000a900473ffffffffffffffffffffffffffffffffffffffff1673ffffffffffffffffffffffffffffffffffffffff1614610e35576040517f08c379a00000000000000000000000000000000000000000000000000000000081526004018080602001828103825260208152602001807f4f776e61626c653a2063616c6c6572206973206e6f7420746865206f776e657281525060200191505060405180910390fd5b60006001800160006101000a81548160ff02191690836002811115610e5657fe5b0217905550565b610e6561106a565b73ffffffffffffffffffffffffffffffffffffffff166000809054906101000a900473ffffffffffffffffffffffffffffffffffffffff1673ffffffffffffffffffffffffffffffffffffffff1614610f26576040517f08c379a00000000000000000000000000000000000000000000000000000000081526004018080602001828103825260208152602001807f4f776e61626c653a2063616c6c6572206973206e6f7420746865206f776e657281525060200191505060405180910390fd5b600073ffffffffffffffffffffffffffffffffffffffff168173ffffffffffffffffffffffffffffffffffffffff161415610fac576040517f08c379a00000000000000000000000000000000000000000000000000000000081526004018080602001828103825260268152602001806112b06026913960400191505060405180910390fd5b8073ffffffffffffffffffffffffffffffffffffffff166000809054906101000a900473ffffffffffffffffffffffffffffffffffffffff1673ffffffffffffffffffffffffffffffffffffffff167f8be0079c531659141344cd1fd0a4f28419497f9722a3daafe3b4186f6b6457e060405160405180910390a3806000806101000a81548173ffffffffffffffffffffffffffffffffffffffff021916908373ffffffffffffffffffffffffffffffffffffffff16021790555050565b600033905090565b60006110b483836040518060400160405280601e81526020017f536166654d6174683a207375627472616374696f6e206f766572666c6f770000815250611106565b905092915050565b60006110fe83836040518060400160405280601a81526020017f536166654d6174683a206469766973696f6e206279207a65726f0000000000008152506111c6565b905092915050565b60008383111582906111b3576040517f08c379a00000000000000000000000000000000000000000000000000000000081526004018080602001828103825283818151815260200191508051906020019080838360005b8381101561117857808201518184015260208101905061115d565b50505050905090810190601f1680156111a55780820380516001836020036101000a031916815260200191505b509250505060405180910390fd5b5060008385039050809150509392505050565b60008083118290611272576040517f08c379a00000000000000000000000000000000000000000000000000000000081526004018080602001828103825283818151815260200191508051906020019080838360005b8381101561123757808201518184015260208101905061121c565b50505050905090810190601f1680156112645780820380516001836020036101000a031916815260200191505b509250505060405180910390fd5b50600083858161127e57fe5b04905080915050939250505056fe416c6c65206765626f656b746520646167656e207a696a6e206f706765627275696b744f776e61626c653a206e6577206f776e657220697320746865207a65726f2061646472657373456e6b656c20646520626f656b6572206d61672064657a6520616374696520646f656ea264697066735822122046bf807b9b242900d4ce7af906f6e2264fc549faa263e0987833bdc72cb430c564736f6c634300060b0033",
  "immutableReferences": {},
  "source": "// SPDX-License-Identifier: MIT\npragma solidity 0.6.11;\nimport \"@openzeppelin/contracts/access/Ownable.sol\";\nimport \"@openzeppelin/contracts/math/SafeMath.sol\";\n\ncontract HotelKamer is Ownable {\n    using SafeMath for uint256;\n\n    enum KamerStatus {Vrij, Geboekt, Onbeschikbaar}\n\n    struct Kamer {\n        uint256 Nummer;\n        KamerStatus Status;\n        uint256 Prijs; // in wei\n        uint256 AantalGeboekteDagen;\n        address Boeker;\n    }\n\n    Kamer public kamer;\n\n    constructor() public {\n        Reset();\n    }\n\n    modifier BetalingHogerDanPrijs(uint256 _betaling) {\n        require(_betaling >= kamer.Prijs, \"betaling is minder dan de prijs\");\n        _;\n    }\n    modifier KamerMoetVrijZijn() {\n        require(kamer.Status == KamerStatus.Vrij, \"Kamer is niet vrij\");\n        _;\n    }\n    modifier BeschikbareGeboekteDagen() {\n        require(\n            kamer.AantalGeboekteDagen > 0,\n            \"Alle geboekte dagen zijn opgebruikt\"\n        );\n        _;\n    }\n    modifier EnkelDoorBoeker() {\n        require(\n            msg.sender == kamer.Boeker,\n            \"Enkel de boeker mag deze actie doen\"\n        );\n        _;\n    }\n\n    function ZetPrijs(uint256 _prijs) external onlyOwner {\n        kamer.Prijs = _prijs;\n    }\n\n    function ZetGeboekt() external onlyOwner {\n        kamer.Status = KamerStatus.Geboekt;\n    }\n\n    function ZetVrij() external onlyOwner {\n        kamer.Status = KamerStatus.Vrij;\n    }\n\n    function Reset() public onlyOwner {\n        kamer.Status = KamerStatus.Vrij;\n        kamer.Prijs = 0.1 ether;\n        kamer.AantalGeboekteDagen = 0;\n        kamer.Boeker = address(this); // default to contract address\n    }\n\n    function MaakBoeking()\n        external\n        payable\n        BetalingHogerDanPrijs(msg.value)\n        KamerMoetVrijZijn\n    {\n        kamer.Status = KamerStatus.Geboekt;\n        kamer.AantalGeboekteDagen = SafeMath.div(msg.value, kamer.Prijs);\n        kamer.Boeker = msg.sender;\n    }\n\n    function ToonBalans() external view onlyOwner returns (uint256) {\n        return address(this).balance;\n    }\n\n    function Uitbetaling() external onlyOwner() {\n        // (bool success, ) = msg.sender.call{value: address(this).balance}(\"\");\n        bool success = msg.sender.send(address(this).balance);\n        require(success, \"Transfer failed.\");\n    }\n\n    function OpenDeur() external BeschikbareGeboekteDagen EnkelDoorBoeker {\n        kamer.AantalGeboekteDagen = SafeMath.sub(kamer.AantalGeboekteDagen, 1);\n        if (kamer.AantalGeboekteDagen == 0) {\n            kamer.Status = KamerStatus.Vrij;\n            kamer.Boeker = address(this); // default to contract address\n        }\n    }\n}\n",
  "sourcePath": "/Users/renaatmeeuws/Dev/Ethereum/Truffle/HotelKamer/Contract/contracts/HotelKamer.sol",
  "compiler": {
    "name": "solc",
    "version": "0.6.11+commit.5ef660b1.Emscripten.clang"
  },
  "schemaVersion": "3.2.2",
  "updatedAt": "2020-07-18T15:23:06.989Z",
  "devdoc": {
    "kind": "dev",
    "methods": {
      "owner()": {
        "details": "Returns the address of the current owner."
      },
      "renounceOwnership()": {
        "details": "Leaves the contract without owner. It will not be possible to call `onlyOwner` functions anymore. Can only be called by the current owner. NOTE: Renouncing ownership will leave the contract without an owner, thereby removing any functionality that is only available to the owner."
      },
      "transferOwnership(address)": {
        "details": "Transfers ownership of the contract to a new account (`newOwner`). Can only be called by the current owner."
      }
    },
    "version": 1
  },
  "userdoc": {
    "kind": "user",
    "methods": {},
    "version": 1
  }
}