{
  "contractName": "HotelKamer",
  "abi": [
    {
      "inputs": [],
      "stateMutability": "nonpayable",
      "type": "constructor"
    },
    {
      "anonymous": false,
      "inputs": [
        {
          "indexed": true,
          "internalType": "address",
          "name": "previousOwner",
          "type": "address"
        },
        {
          "indexed": true,
          "internalType": "address",
          "name": "newOwner",
          "type": "address"
        }
      ],
      "name": "OwnershipTransferred",
      "type": "event"
    },
    {
      "inputs": [],
      "name": "kamer",
      "outputs": [
        {
          "internalType": "uint256",
          "name": "Nummer",
          "type": "uint256"
        },
        {
          "internalType": "enum HotelKamer.KamerStatus",
          "name": "Status",
          "type": "uint8"
        },
        {
          "internalType": "uint256",
          "name": "Prijs",
          "type": "uint256"
        },
        {
          "internalType": "uint256",
          "name": "AantalGeboekteDagen",
          "type": "uint256"
        },
        {
          "internalType": "address",
          "name": "Boeker",
          "type": "address"
        }
      ],
      "stateMutability": "view",
      "type": "function"
    },
    {
      "inputs": [],
      "name": "owner",
      "outputs": [
        {
          "internalType": "address",
          "name": "",
          "type": "address"
        }
      ],
      "stateMutability": "view",
      "type": "function"
    },
    {
      "inputs": [],
      "name": "renounceOwnership",
      "outputs": [],
      "stateMutability": "nonpayable",
      "type": "function"
    },
    {
      "inputs": [
        {
          "internalType": "address",
          "name": "newOwner",
          "type": "address"
        }
      ],
      "name": "transferOwnership",
      "outputs": [],
      "stateMutability": "nonpayable",
      "type": "function"
    },
    {
      "inputs": [
        {
          "internalType": "uint256",
          "name": "_prijs",
          "type": "uint256"
        }
      ],
      "name": "ZetPrijs",
      "outputs": [],
      "stateMutability": "nonpayable",
      "type": "function"
    },
    {
      "inputs": [],
      "name": "ZetGeboekt",
      "outputs": [],
      "stateMutability": "nonpayable",
      "type": "function"
    },
    {
      "inputs": [],
      "name": "ZetVrij",
      "outputs": [],
      "stateMutability": "nonpayable",
      "type": "function"
    },
    {
      "inputs": [],
      "name": "Reset",
      "outputs": [],
      "stateMutability": "nonpayable",
      "type": "function"
    },
    {
      "inputs": [],
      "name": "MaakBoeking",
      "outputs": [],
      "stateMutability": "payable",
      "type": "function"
    },
    {
      "inputs": [],
      "name": "ToonBalans",
      "outputs": [
        {
          "internalType": "uint256",
          "name": "",
          "type": "uint256"
        }
      ],
      "stateMutability": "view",
      "type": "function"
    },
    {
      "inputs": [],
      "name": "Uitbetaling",
      "outputs": [],
      "stateMutability": "nonpayable",
      "type": "function"
    },
    {
      "inputs": [],
      "name": "OpenDeur",
      "outputs": [],
      "stateMutability": "nonpayable",
      "type": "function"
    }
  ],
  "bytecode": "0x608060405234801561001057600080fd5b5060006100216100d260201b60201c565b9050806000806101000a81548173ffffffffffffffffffffffffffffffffffffffff021916908373ffffffffffffffffffffffffffffffffffffffff1602179055508073ffffffffffffffffffffffffffffffffffffffff16600073ffffffffffffffffffffffffffffffffffffffff167f8be0079c531659141344cd1fd0a4f28419497f9722a3daafe3b4186f6b6457e060405160405180910390a3506100cd6100da60201b60201c565b610232565b600033905090565b6100e86100d260201b60201c565b73ffffffffffffffffffffffffffffffffffffffff166000809054906101000a900473ffffffffffffffffffffffffffffffffffffffff1673ffffffffffffffffffffffffffffffffffffffff16146101a9576040517f08c379a00000000000000000000000000000000000000000000000000000000081526004018080602001828103825260208152602001807f4f776e61626c653a2063616c6c6572206973206e6f7420746865206f776e657281525060200191505060405180910390fd5b60006001800160006101000a81548160ff021916908360028111156101ca57fe5b021790555067016345785d8a0000600160020181905550600060016003018190555030600160040160006101000a81548173ffffffffffffffffffffffffffffffffffffffff021916908373ffffffffffffffffffffffffffffffffffffffff160217905550565b610ff9806102416000396000f3fe6080604052600436106100a75760003560e01c80637a0d768d116100645780637a0d768d1461016e5780638da5cb5b146101ef578063c0f09e1b14610246578063c559e54b1461025d578063cd4593c314610267578063f2fde38b1461027e576100a7565b8063389dd05b146100ac5780634ddfcaf7146100d7578063534c6e4f146100ee5780636423db34146101295780636dd013b514610140578063715018a614610157575b600080fd5b3480156100b857600080fd5b506100c16102cf565b6040518082815260200191505060405180910390f35b3480156100e357600080fd5b506100ec6103a0565b005b3480156100fa57600080fd5b506101276004803603602081101561011157600080fd5b8101908080359060200190929190505050610413565b005b34801561013557600080fd5b5061013e6104e9565b005b34801561014c57600080fd5b5061015561063b565b005b34801561016357600080fd5b5061016c6107e3565b005b34801561017a57600080fd5b5061018361096b565b6040518086815260200185600281111561019957fe5b60ff1681526020018481526020018381526020018273ffffffffffffffffffffffffffffffffffffffff1673ffffffffffffffffffffffffffffffffffffffff1681526020019550505050505060405180910390f35b3480156101fb57600080fd5b506102046109bc565b604051808273ffffffffffffffffffffffffffffffffffffffff1673ffffffffffffffffffffffffffffffffffffffff16815260200191505060405180910390f35b34801561025257600080fd5b5061025b6109e5565b005b610265610ad6565b005b34801561027357600080fd5b5061027c610c74565b005b34801561028a57600080fd5b506102cd600480360360208110156102a157600080fd5b81019080803573ffffffffffffffffffffffffffffffffffffffff169060200190929190505050610d65565b005b60006102d9610f72565b73ffffffffffffffffffffffffffffffffffffffff166000809054906101000a900473ffffffffffffffffffffffffffffffffffffffff1673ffffffffffffffffffffffffffffffffffffffff161461039a576040517f08c379a00000000000000000000000000000000000000000000000000000000081526004018080602001828103825260208152602001807f4f776e61626c653a2063616c6c6572206973206e6f7420746865206f776e657281525060200191505060405180910390fd5b47905090565b6000600160030154116103fe576040517f08c379a0000000000000000000000000000000000000000000000000000000008152600401808060200182810382526023815260200180610f7b6023913960400191505060405180910390fd5b60018060030160008282540392505081905550565b61041b610f72565b73ffffffffffffffffffffffffffffffffffffffff166000809054906101000a900473ffffffffffffffffffffffffffffffffffffffff1673ffffffffffffffffffffffffffffffffffffffff16146104dc576040517f08c379a00000000000000000000000000000000000000000000000000000000081526004018080602001828103825260208152602001807f4f776e61626c653a2063616c6c6572206973206e6f7420746865206f776e657281525060200191505060405180910390fd5b8060016002018190555050565b6104f1610f72565b73ffffffffffffffffffffffffffffffffffffffff166000809054906101000a900473ffffffffffffffffffffffffffffffffffffffff1673ffffffffffffffffffffffffffffffffffffffff16146105b2576040517f08c379a00000000000000000000000000000000000000000000000000000000081526004018080602001828103825260208152602001807f4f776e61626c653a2063616c6c6572206973206e6f7420746865206f776e657281525060200191505060405180910390fd5b60006001800160006101000a81548160ff021916908360028111156105d357fe5b021790555067016345785d8a0000600160020181905550600060016003018190555030600160040160006101000a81548173ffffffffffffffffffffffffffffffffffffffff021916908373ffffffffffffffffffffffffffffffffffffffff160217905550565b610643610f72565b73ffffffffffffffffffffffffffffffffffffffff166000809054906101000a900473ffffffffffffffffffffffffffffffffffffffff1673ffffffffffffffffffffffffffffffffffffffff1614610704576040517f08c379a00000000000000000000000000000000000000000000000000000000081526004018080602001828103825260208152602001807f4f776e61626c653a2063616c6c6572206973206e6f7420746865206f776e657281525060200191505060405180910390fd5b60003373ffffffffffffffffffffffffffffffffffffffff164760405180600001905060006040518083038185875af1925050503d8060008114610764576040519150601f19603f3d011682016040523d82523d6000602084013e610769565b606091505b50509050806107e0576040517f08c379a00000000000000000000000000000000000000000000000000000000081526004018080602001828103825260108152602001807f5472616e73666572206661696c65642e0000000000000000000000000000000081525060200191505060405180910390fd5b50565b6107eb610f72565b73ffffffffffffffffffffffffffffffffffffffff166000809054906101000a900473ffffffffffffffffffffffffffffffffffffffff1673ffffffffffffffffffffffffffffffffffffffff16146108ac576040517f08c379a00000000000000000000000000000000000000000000000000000000081526004018080602001828103825260208152602001807f4f776e61626c653a2063616c6c6572206973206e6f7420746865206f776e657281525060200191505060405180910390fd5b600073ffffffffffffffffffffffffffffffffffffffff166000809054906101000a900473ffffffffffffffffffffffffffffffffffffffff1673ffffffffffffffffffffffffffffffffffffffff167f8be0079c531659141344cd1fd0a4f28419497f9722a3daafe3b4186f6b6457e060405160405180910390a360008060006101000a81548173ffffffffffffffffffffffffffffffffffffffff021916908373ffffffffffffffffffffffffffffffffffffffff160217905550565b60018060000154908060010160009054906101000a900460ff16908060020154908060030154908060040160009054906101000a900473ffffffffffffffffffffffffffffffffffffffff16905085565b60008060009054906101000a900473ffffffffffffffffffffffffffffffffffffffff16905090565b6109ed610f72565b73ffffffffffffffffffffffffffffffffffffffff166000809054906101000a900473ffffffffffffffffffffffffffffffffffffffff1673ffffffffffffffffffffffffffffffffffffffff1614610aae576040517f08c379a00000000000000000000000000000000000000000000000000000000081526004018080602001828103825260208152602001807f4f776e61626c653a2063616c6c6572206973206e6f7420746865206f776e657281525060200191505060405180910390fd5b60018060010160006101000a81548160ff02191690836002811115610acf57fe5b0217905550565b34600160020154811015610b52576040517f08c379a000000000000000000000000000000000000000000000000000000000815260040180806020018281038252601f8152602001807f626574616c696e67206973206d696e6465722064616e206465207072696a730081525060200191505060405180910390fd5b60006002811115610b5f57fe5b6001800160009054906101000a900460ff166002811115610b7c57fe5b14610bef576040517f08c379a00000000000000000000000000000000000000000000000000000000081526004018080602001828103825260128152602001807f4b616d6572206973206e696574207672696a000000000000000000000000000081525060200191505060405180910390fd5b60018060010160006101000a81548160ff02191690836002811115610c1057fe5b02179055506001600201543481610c2357fe5b0460016003018190555033600160040160006101000a81548173ffffffffffffffffffffffffffffffffffffffff021916908373ffffffffffffffffffffffffffffffffffffffff16021790555050565b610c7c610f72565b73ffffffffffffffffffffffffffffffffffffffff166000809054906101000a900473ffffffffffffffffffffffffffffffffffffffff1673ffffffffffffffffffffffffffffffffffffffff1614610d3d576040517f08c379a00000000000000000000000000000000000000000000000000000000081526004018080602001828103825260208152602001807f4f776e61626c653a2063616c6c6572206973206e6f7420746865206f776e657281525060200191505060405180910390fd5b60006001800160006101000a81548160ff02191690836002811115610d5e57fe5b0217905550565b610d6d610f72565b73ffffffffffffffffffffffffffffffffffffffff166000809054906101000a900473ffffffffffffffffffffffffffffffffffffffff1673ffffffffffffffffffffffffffffffffffffffff1614610e2e576040517f08c379a00000000000000000000000000000000000000000000000000000000081526004018080602001828103825260208152602001807f4f776e61626c653a2063616c6c6572206973206e6f7420746865206f776e657281525060200191505060405180910390fd5b600073ffffffffffffffffffffffffffffffffffffffff168173ffffffffffffffffffffffffffffffffffffffff161415610eb4576040517f08c379a0000000000000000000000000000000000000000000000000000000008152600401808060200182810382526026815260200180610f9e6026913960400191505060405180910390fd5b8073ffffffffffffffffffffffffffffffffffffffff166000809054906101000a900473ffffffffffffffffffffffffffffffffffffffff1673ffffffffffffffffffffffffffffffffffffffff167f8be0079c531659141344cd1fd0a4f28419497f9722a3daafe3b4186f6b6457e060405160405180910390a3806000806101000a81548173ffffffffffffffffffffffffffffffffffffffff021916908373ffffffffffffffffffffffffffffffffffffffff16021790555050565b60003390509056fe416c6c65206765626f656b746520646167656e207a696a6e206f706765627275696b744f776e61626c653a206e6577206f776e657220697320746865207a65726f2061646472657373a2646970667358221220e8c31cb8482ff2f47d0d14e07713e4e234c5539d170218294142a9369261c01364736f6c634300060a0033",
  "immutableReferences": {},
  "source": "// SPDX-License-Identifier: MIT\npragma solidity ^0.6.9;\nimport \"@openzeppelin/contracts/access/Ownable.sol\";\n\ncontract HotelKamer is Ownable {\n    enum KamerStatus {Vrij, Geboekt, Onbeschikbaar}\n\n    struct Kamer {\n        uint256 Nummer;\n        KamerStatus Status;\n        uint256 Prijs; // in wei\n        uint256 AantalGeboekteDagen;\n        address Boeker;\n    }\n\n    Kamer public kamer;\n\n    constructor() public {\n        Reset();\n    }\n\n    modifier BetalingHogerDanPrijs(uint256 _betaling) {\n        require(_betaling >= kamer.Prijs, \"betaling is minder dan de prijs\");\n        _;\n    }\n    modifier KamerMoetVrijZijn() {\n        require(kamer.Status == KamerStatus.Vrij, \"Kamer is niet vrij\");\n        _;\n    }\n    modifier BeschikbareGeboekteDagen() {\n        require(\n            kamer.AantalGeboekteDagen > 0,\n            \"Alle geboekte dagen zijn opgebruikt\"\n        );\n        _;\n    }\n\n    function ZetPrijs(uint256 _prijs) public onlyOwner {\n        kamer.Prijs = _prijs;\n    }\n\n    function ZetGeboekt() public onlyOwner {\n        kamer.Status = KamerStatus.Geboekt;\n    }\n\n    function ZetVrij() public onlyOwner {\n        kamer.Status = KamerStatus.Vrij;\n    }\n\n    function Reset() public onlyOwner {\n        kamer.Status = KamerStatus.Vrij;\n        kamer.Prijs = 0.1 ether;\n        kamer.AantalGeboekteDagen = 0;\n        kamer.Boeker = address(this); // default to contract address\n    }\n\n    function MaakBoeking()\n        public\n        payable\n        BetalingHogerDanPrijs(msg.value)\n        KamerMoetVrijZijn\n    {\n        kamer.Status = KamerStatus.Geboekt;\n        kamer.AantalGeboekteDagen = msg.value / kamer.Prijs;\n        kamer.Boeker = msg.sender;\n    }\n\n    function ToonBalans() public view onlyOwner returns (uint256) {\n        return address(this).balance;\n    }\n\n    function Uitbetaling() public onlyOwner() {\n        (bool success, ) = msg.sender.call{value: address(this).balance}(\"\");\n        require(success, \"Transfer failed.\");\n    }\n\n    function OpenDeur() public BeschikbareGeboekteDagen {\n        kamer.AantalGeboekteDagen -= 1;\n    }\n}\n",
  "sourcePath": "/Users/renaatmeeuws/Dev/Ethereum/Truffle/Hotel/contracts/HotelKamer.sol",
  "compiler": {
    "name": "solc",
    "version": "0.6.10+commit.00c0fcaf.Emscripten.clang"
  },
  "schemaVersion": "3.2.1",
  "updatedAt": "2020-07-13T14:55:38.833Z",
  "devdoc": {
    "methods": {
      "owner()": {
        "details": "Returns the address of the current owner."
      },
      "renounceOwnership()": {
        "details": "Leaves the contract without owner. It will not be possible to call `onlyOwner` functions anymore. Can only be called by the current owner. NOTE: Renouncing ownership will leave the contract without an owner, thereby removing any functionality that is only available to the owner."
      },
      "transferOwnership(address)": {
        "details": "Transfers ownership of the contract to a new account (`newOwner`). Can only be called by the current owner."
      }
    }
  },
  "userdoc": {
    "methods": {}
  }
}