{
  "contractName": "HotelKamer",
  "abi": [
    {
      "inputs": [],
      "stateMutability": "nonpayable",
      "type": "constructor"
    },
    {
      "anonymous": false,
      "inputs": [
        {
          "indexed": true,
          "internalType": "address",
          "name": "previousOwner",
          "type": "address"
        },
        {
          "indexed": true,
          "internalType": "address",
          "name": "newOwner",
          "type": "address"
        }
      ],
      "name": "OwnershipTransferred",
      "type": "event"
    },
    {
      "anonymous": false,
      "inputs": [
        {
          "indexed": false,
          "internalType": "address",
          "name": "account",
          "type": "address"
        }
      ],
      "name": "Paused",
      "type": "event"
    },
    {
      "anonymous": false,
      "inputs": [
        {
          "indexed": false,
          "internalType": "address",
          "name": "account",
          "type": "address"
        }
      ],
      "name": "Unpaused",
      "type": "event"
    },
    {
      "inputs": [],
      "name": "kamer",
      "outputs": [
        {
          "internalType": "uint8",
          "name": "AantalGeboekteDagen",
          "type": "uint8"
        },
        {
          "internalType": "uint256",
          "name": "Prijs",
          "type": "uint256"
        },
        {
          "internalType": "bool",
          "name": "Beschikbaar",
          "type": "bool"
        },
        {
          "internalType": "address",
          "name": "Boeker",
          "type": "address"
        }
      ],
      "stateMutability": "view",
      "type": "function",
      "constant": true
    },
    {
      "inputs": [],
      "name": "owner",
      "outputs": [
        {
          "internalType": "address",
          "name": "",
          "type": "address"
        }
      ],
      "stateMutability": "view",
      "type": "function",
      "constant": true
    },
    {
      "inputs": [],
      "name": "paused",
      "outputs": [
        {
          "internalType": "bool",
          "name": "",
          "type": "bool"
        }
      ],
      "stateMutability": "view",
      "type": "function",
      "constant": true
    },
    {
      "inputs": [],
      "name": "renounceOwnership",
      "outputs": [],
      "stateMutability": "nonpayable",
      "type": "function"
    },
    {
      "inputs": [
        {
          "internalType": "address",
          "name": "newOwner",
          "type": "address"
        }
      ],
      "name": "transferOwnership",
      "outputs": [],
      "stateMutability": "nonpayable",
      "type": "function"
    },
    {
      "inputs": [
        {
          "internalType": "uint256",
          "name": "_prijs",
          "type": "uint256"
        }
      ],
      "name": "ZetPrijs",
      "outputs": [],
      "stateMutability": "nonpayable",
      "type": "function"
    },
    {
      "inputs": [],
      "name": "ZetGeboekt",
      "outputs": [],
      "stateMutability": "nonpayable",
      "type": "function"
    },
    {
      "inputs": [],
      "name": "ZetVrij",
      "outputs": [],
      "stateMutability": "nonpayable",
      "type": "function"
    },
    {
      "inputs": [],
      "name": "Reset",
      "outputs": [],
      "stateMutability": "nonpayable",
      "type": "function"
    },
    {
      "inputs": [],
      "name": "MaakBoeking",
      "outputs": [],
      "stateMutability": "payable",
      "type": "function",
      "payable": true
    },
    {
      "inputs": [],
      "name": "Uitbetaling",
      "outputs": [],
      "stateMutability": "nonpayable",
      "type": "function"
    },
    {
      "inputs": [],
      "name": "OpenDeur",
      "outputs": [],
      "stateMutability": "nonpayable",
      "type": "function"
    },
    {
      "inputs": [],
      "name": "HandRem",
      "outputs": [],
      "stateMutability": "nonpayable",
      "type": "function"
    }
  ],
  "bytecode": "0x608060405234801561001057600080fd5b5060006100246001600160e01b0361009116565b600080546001600160a01b0319166001600160a01b0383169081178255604051929350917f8be0079c531659141344cd1fd0a4f28419497f9722a3daafe3b4186f6b6457e0908290a3506000805460ff60a01b1916905561008c6001600160e01b0361009516565b61022e565b3390565b6100a66001600160e01b0361009116565b6000546001600160a01b03908116911614610108576040805162461bcd60e51b815260206004820181905260248201527f4f776e61626c653a2063616c6c6572206973206e6f7420746865206f776e6572604482015290519081900360640190fd5b6101196001600160e01b0361016416565b1561012f5761012f6001600160e01b0361017416565b6003805467016345785d8a00006002556001805460ff19908116825590911617610100600160a81b0319166101003002179055565b600054600160a01b900460ff1690565b600054600160a01b900460ff166101d2576040805162461bcd60e51b815260206004820152601460248201527f5061757361626c653a206e6f7420706175736564000000000000000000000000604482015290519081900360640190fd5b6000805460ff60a01b191690557f5db9ee0a495bf2e6ff9c91a7834c1ba4fdd244a5e8aa4e537bd38aeae4b073aa6102116001600160e01b0361009116565b604080516001600160a01b039092168252519081900360200190a1565b610d648061023d6000396000f3fe6080604052600436106100c25760003560e01c80637a0d768d1161007f578063c559e54b11610059578063c559e54b146101fe578063cd4593c314610206578063f2081d1b1461021b578063f2fde38b14610230576100c2565b80637a0d768d146101705780638da5cb5b146101b8578063c0f09e1b146101e9576100c2565b80634ddfcaf7146100c7578063534c6e4f146100de5780635c975abb146101085780636423db34146101315780636dd013b514610146578063715018a61461015b575b600080fd5b3480156100d357600080fd5b506100dc610263565b005b3480156100ea57600080fd5b506100dc6004803603602081101561010157600080fd5b5035610385565b34801561011457600080fd5b5061011d610434565b604080519115158252519081900360200190f35b34801561013d57600080fd5b506100dc610444565b34801561015257600080fd5b506100dc6104e6565b34801561016757600080fd5b506100dc6105a5565b34801561017c57600080fd5b50610185610647565b6040805160ff90951685526020850193909352901515838301526001600160a01b03166060830152519081900360800190f35b3480156101c457600080fd5b506101cd61066a565b604080516001600160a01b039092168252519081900360200190f35b3480156101f557600080fd5b506100dc610679565b6100dc61072f565b34801561021257600080fd5b506100dc61086c565b34801561022757600080fd5b506100dc610925565b34801561023c57600080fd5b506100dc6004803603602081101561025357600080fd5b50356001600160a01b0316610985565b600054600160a01b900460ff16156102b5576040805162461bcd60e51b815260206004820152601060248201526f14185d5cd8589b194e881c185d5cd95960821b604482015290519081900360640190fd5b60015460ff166102f65760405162461bcd60e51b8152600401808060200182810382526023815260200180610ca36023913960400191505060405180910390fd5b60035461010090046001600160a01b031633146103445760405162461bcd60e51b8152600401808060200182810382526023815260200180610d0c6023913960400191505060405180910390fd5b6001805460ff19811660ff9182166000190182161791829055166103835760038054600160ff1990911617610100600160a81b03191661010030021790555b565b61038d610a7d565b6000546001600160a01b039081169116146103dd576040805162461bcd60e51b81526020600482018190526024820152600080516020610cec833981519152604482015290519081900360640190fd5b600054600160a01b900460ff161561042f576040805162461bcd60e51b815260206004820152601060248201526f14185d5cd8589b194e881c185d5cd95960821b604482015290519081900360640190fd5b600255565b600054600160a01b900460ff1690565b61044c610a7d565b6000546001600160a01b0390811691161461049c576040805162461bcd60e51b81526020600482018190526024820152600080516020610cec833981519152604482015290519081900360640190fd5b6104a4610434565b156104b1576104b1610a81565b6003805467016345785d8a00006002556001805460ff19908116825590911617610100600160a81b0319166101003002179055565b6104ee610a7d565b6000546001600160a01b0390811691161461053e576040805162461bcd60e51b81526020600482018190526024820152600080516020610cec833981519152604482015290519081900360640190fd5b60405160009033904780156108fc029184818181858888f193505050509050806105a2576040805162461bcd60e51b815260206004820152601060248201526f2a3930b739b332b9103330b4b632b21760811b604482015290519081900360640190fd5b50565b6105ad610a7d565b6000546001600160a01b039081169116146105fd576040805162461bcd60e51b81526020600482018190526024820152600080516020610cec833981519152604482015290519081900360640190fd5b600080546040516001600160a01b03909116907f8be0079c531659141344cd1fd0a4f28419497f9722a3daafe3b4186f6b6457e0908390a3600080546001600160a01b0319169055565b60015460025460035460ff9283169281169061010090046001600160a01b031684565b6000546001600160a01b031690565b610681610a7d565b6000546001600160a01b039081169116146106d1576040805162461bcd60e51b81526020600482018190526024820152600080516020610cec833981519152604482015290519081900360640190fd5b600054600160a01b900460ff1615610723576040805162461bcd60e51b815260206004820152601060248201526f14185d5cd8589b194e881c185d5cd95960821b604482015290519081900360640190fd5b6003805460ff19169055565b600054600160a01b900460ff1615610781576040805162461bcd60e51b815260206004820152601060248201526f14185d5cd8589b194e881c185d5cd95960821b604482015290519081900360640190fd5b60035460ff166107cd576040805162461bcd60e51b815260206004820152601260248201527125b0b6b2b91034b9903734b2ba103b3934b560711b604482015290519081900360640190fd5b6002543490811015610826576040805162461bcd60e51b815260206004820152601f60248201527f626574616c696e67206973206d696e6465722064616e206465207072696a7300604482015290519081900360640190fd5b6003805460ff1916905560025461083e903490610b29565b6001805460ff191660ff929092169190911790555060038054610100600160a81b0319166101003302179055565b610874610a7d565b6000546001600160a01b039081169116146108c4576040805162461bcd60e51b81526020600482018190526024820152600080516020610cec833981519152604482015290519081900360640190fd5b600054600160a01b900460ff1615610916576040805162461bcd60e51b815260206004820152601060248201526f14185d5cd8589b194e881c185d5cd95960821b604482015290519081900360640190fd5b6003805460ff19166001179055565b61092d610a7d565b6000546001600160a01b0390811691161461097d576040805162461bcd60e51b81526020600482018190526024820152600080516020610cec833981519152604482015290519081900360640190fd5b610383610b72565b61098d610a7d565b6000546001600160a01b039081169116146109dd576040805162461bcd60e51b81526020600482018190526024820152600080516020610cec833981519152604482015290519081900360640190fd5b6001600160a01b038116610a225760405162461bcd60e51b8152600401808060200182810382526026815260200180610cc66026913960400191505060405180910390fd5b600080546040516001600160a01b03808516939216917f8be0079c531659141344cd1fd0a4f28419497f9722a3daafe3b4186f6b6457e091a3600080546001600160a01b0319166001600160a01b0392909216919091179055565b3390565b600054600160a01b900460ff16610ad6576040805162461bcd60e51b815260206004820152601460248201527314185d5cd8589b194e881b9bdd081c185d5cd95960621b604482015290519081900360640190fd5b6000805460ff60a01b191690557f5db9ee0a495bf2e6ff9c91a7834c1ba4fdd244a5e8aa4e537bd38aeae4b073aa610b0c610a7d565b604080516001600160a01b039092168252519081900360200190a1565b6000610b6b83836040518060400160405280601a81526020017f536166654d6174683a206469766973696f6e206279207a65726f000000000000815250610c00565b9392505050565b600054600160a01b900460ff1615610bc4576040805162461bcd60e51b815260206004820152601060248201526f14185d5cd8589b194e881c185d5cd95960821b604482015290519081900360640190fd5b6000805460ff60a01b1916600160a01b1790557f62e78cea01bee320cd4e420270b5ea74000d11b0c9f74754ebdbfc544b05a258610b0c610a7d565b60008183610c8c5760405162461bcd60e51b81526004018080602001828103825283818151815260200191508051906020019080838360005b83811015610c51578181015183820152602001610c39565b50505050905090810190601f168015610c7e5780820380516001836020036101000a031916815260200191505b509250505060405180910390fd5b506000838581610c9857fe5b049594505050505056fe416c6c65206765626f656b746520646167656e207a696a6e206f706765627275696b744f776e61626c653a206e6577206f776e657220697320746865207a65726f20616464726573734f776e61626c653a2063616c6c6572206973206e6f7420746865206f776e6572456e6b656c20646520626f656b6572206d61672064657a6520616374696520646f656ea26469706673582212202ef5274f71ed144c72533e11f05c731734bf254a535b8176885167d0ad8da44e64736f6c634300060b0033",
  "immutableReferences": {},
  "source": "// SPDX-License-Identifier: MIT\npragma solidity 0.6.11;\nimport \"@openzeppelin/contracts/access/Ownable.sol\";\nimport \"@openzeppelin/contracts/utils/Pausable.sol\";\nimport \"@openzeppelin/contracts/math/SafeMath.sol\";\n\ncontract HotelKamer is Ownable, Pausable {\n    using SafeMath for uint256;\n\n    //  enum KamerStatus {Vrij, Geboekt, Onbeschikbaar}\n\n    struct Kamer {\n        //  uint8 Nummer;\n        uint8 AantalGeboekteDagen;\n        uint256 Prijs; // in wei\n        bool Beschikbaar;\n        address Boeker;\n    }\n\n    Kamer public kamer;\n\n    constructor() public Pausable() {\n        Reset();\n    }\n\n    modifier BetalingHogerDanPrijs(uint256 _betaling) {\n        require(_betaling >= kamer.Prijs, \"betaling is minder dan de prijs\");\n        _;\n    }\n    modifier KamerMoetVrijZijn() {\n        require(kamer.Beschikbaar, \"Kamer is niet vrij\");\n        _;\n    }\n    modifier BeschikbareGeboekteDagen() {\n        require(\n            kamer.AantalGeboekteDagen > 0,\n            \"Alle geboekte dagen zijn opgebruikt\"\n        );\n        _;\n    }\n    modifier EnkelDoorBoeker() {\n        require(\n            msg.sender == kamer.Boeker,\n            \"Enkel de boeker mag deze actie doen\"\n        );\n        _;\n    }\n\n    function ZetPrijs(uint256 _prijs) external onlyOwner whenNotPaused() {\n        kamer.Prijs = _prijs;\n    }\n\n    function ZetGeboekt() external onlyOwner whenNotPaused() {\n        kamer.Beschikbaar = false;\n    }\n\n    function ZetVrij() external onlyOwner whenNotPaused() {\n        kamer.Beschikbaar = true;\n    }\n\n    function Reset() public onlyOwner {\n        if (paused()) _unpause();\n        kamer.Beschikbaar = true;\n        kamer.Prijs = 0.1 ether;\n        kamer.AantalGeboekteDagen = 0;\n        kamer.Boeker = address(this); // default to contract address\n    }\n\n    function MaakBoeking()\n        external\n        payable\n        whenNotPaused()\n        KamerMoetVrijZijn\n        BetalingHogerDanPrijs(msg.value)\n    {\n        kamer.Beschikbaar = false;\n        kamer.AantalGeboekteDagen = uint8(SafeMath.div(msg.value, kamer.Prijs));\n        kamer.Boeker = msg.sender;\n    }\n\n    function Uitbetaling() external onlyOwner() {\n        bool success = msg.sender.send(address(this).balance);\n        require(success, \"Transfer failed.\");\n    }\n\n    /* volgorde van de modifiers is belangrijk !\n   Als laatste geboekte dag is opgebruikt zal de Boeker op de contract adres gezet worden (null bestaat niet in Solidity)\n   Dus moet BeschikbareGeboekteDagen gecheckt worden voor EnkelDoorBoeker\n */\n    function OpenDeur()\n        external\n        whenNotPaused()\n        BeschikbareGeboekteDagen\n        EnkelDoorBoeker\n    {\n        // TODO SafeMath8\n        kamer.AantalGeboekteDagen--;\n        if (kamer.AantalGeboekteDagen == 0) {\n            kamer.Beschikbaar = true;\n            kamer.Boeker = address(this); // default to contract address\n        }\n    }\n\n    function HandRem() external onlyOwner() {\n        _pause();\n    }\n}\n",
  "sourcePath": "/Users/renaatmeeuws/Dev/Ethereum/Truffle/HotelKamer/Contract/contracts/HotelKamer.sol",
  "compiler": {
    "name": "solc",
    "version": "0.6.11+commit.5ef660b1.Emscripten.clang"
  },
  "schemaVersion": "3.2.2",
  "updatedAt": "2020-07-21T10:15:10.006Z",
  "networkType": "ethereum",
  "devdoc": {
    "kind": "dev",
    "methods": {
      "owner()": {
        "details": "Returns the address of the current owner."
      },
      "paused()": {
        "details": "Returns true if the contract is paused, and false otherwise."
      },
      "renounceOwnership()": {
        "details": "Leaves the contract without owner. It will not be possible to call `onlyOwner` functions anymore. Can only be called by the current owner. NOTE: Renouncing ownership will leave the contract without an owner, thereby removing any functionality that is only available to the owner."
      },
      "transferOwnership(address)": {
        "details": "Transfers ownership of the contract to a new account (`newOwner`). Can only be called by the current owner."
      }
    },
    "version": 1
  },
  "userdoc": {
    "kind": "user",
    "methods": {},
    "version": 1
  }
}