{
  "contractName": "HotelKamer",
  "abi": [
    {
      "inputs": [],
      "stateMutability": "nonpayable",
      "type": "constructor"
    },
    {
      "anonymous": false,
      "inputs": [
        {
          "indexed": true,
          "internalType": "address",
          "name": "previousOwner",
          "type": "address"
        },
        {
          "indexed": true,
          "internalType": "address",
          "name": "newOwner",
          "type": "address"
        }
      ],
      "name": "OwnershipTransferred",
      "type": "event"
    },
    {
      "anonymous": false,
      "inputs": [
        {
          "indexed": false,
          "internalType": "address",
          "name": "account",
          "type": "address"
        }
      ],
      "name": "Paused",
      "type": "event"
    },
    {
      "anonymous": false,
      "inputs": [
        {
          "indexed": false,
          "internalType": "address",
          "name": "account",
          "type": "address"
        }
      ],
      "name": "Unpaused",
      "type": "event"
    },
    {
      "inputs": [],
      "name": "kamer",
      "outputs": [
        {
          "internalType": "uint256",
          "name": "Nummer",
          "type": "uint256"
        },
        {
          "internalType": "enum HotelKamer.KamerStatus",
          "name": "Status",
          "type": "uint8"
        },
        {
          "internalType": "uint256",
          "name": "Prijs",
          "type": "uint256"
        },
        {
          "internalType": "uint256",
          "name": "AantalGeboekteDagen",
          "type": "uint256"
        },
        {
          "internalType": "address",
          "name": "Boeker",
          "type": "address"
        }
      ],
      "stateMutability": "view",
      "type": "function",
      "constant": true
    },
    {
      "inputs": [],
      "name": "owner",
      "outputs": [
        {
          "internalType": "address",
          "name": "",
          "type": "address"
        }
      ],
      "stateMutability": "view",
      "type": "function",
      "constant": true
    },
    {
      "inputs": [],
      "name": "paused",
      "outputs": [
        {
          "internalType": "bool",
          "name": "",
          "type": "bool"
        }
      ],
      "stateMutability": "view",
      "type": "function",
      "constant": true
    },
    {
      "inputs": [],
      "name": "renounceOwnership",
      "outputs": [],
      "stateMutability": "nonpayable",
      "type": "function"
    },
    {
      "inputs": [
        {
          "internalType": "address",
          "name": "newOwner",
          "type": "address"
        }
      ],
      "name": "transferOwnership",
      "outputs": [],
      "stateMutability": "nonpayable",
      "type": "function"
    },
    {
      "inputs": [
        {
          "internalType": "uint256",
          "name": "_prijs",
          "type": "uint256"
        }
      ],
      "name": "ZetPrijs",
      "outputs": [],
      "stateMutability": "nonpayable",
      "type": "function"
    },
    {
      "inputs": [],
      "name": "ZetGeboekt",
      "outputs": [],
      "stateMutability": "nonpayable",
      "type": "function"
    },
    {
      "inputs": [],
      "name": "ZetVrij",
      "outputs": [],
      "stateMutability": "nonpayable",
      "type": "function"
    },
    {
      "inputs": [],
      "name": "Reset",
      "outputs": [],
      "stateMutability": "nonpayable",
      "type": "function"
    },
    {
      "inputs": [],
      "name": "MaakBoeking",
      "outputs": [],
      "stateMutability": "payable",
      "type": "function",
      "payable": true
    },
    {
      "inputs": [],
      "name": "Uitbetaling",
      "outputs": [],
      "stateMutability": "nonpayable",
      "type": "function"
    },
    {
      "inputs": [],
      "name": "OpenDeur",
      "outputs": [],
      "stateMutability": "nonpayable",
      "type": "function"
    },
    {
      "inputs": [],
      "name": "HandRem",
      "outputs": [],
      "stateMutability": "nonpayable",
      "type": "function"
    }
  ],
  "bytecode": "0x60806040523480156200001157600080fd5b50600062000024620000f260201b60201c565b9050806000806101000a81548173ffffffffffffffffffffffffffffffffffffffff021916908373ffffffffffffffffffffffffffffffffffffffff1602179055508073ffffffffffffffffffffffffffffffffffffffff16600073ffffffffffffffffffffffffffffffffffffffff167f8be0079c531659141344cd1fd0a4f28419497f9722a3daafe3b4186f6b6457e060405160405180910390a35060008060146101000a81548160ff021916908315150217905550620000ec620000fa60201b60201c565b620003a4565b600033905090565b6200010a620000f260201b60201c565b73ffffffffffffffffffffffffffffffffffffffff166000809054906101000a900473ffffffffffffffffffffffffffffffffffffffff1673ffffffffffffffffffffffffffffffffffffffff1614620001cc576040517f08c379a00000000000000000000000000000000000000000000000000000000081526004018080602001828103825260208152602001807f4f776e61626c653a2063616c6c6572206973206e6f7420746865206f776e657281525060200191505060405180910390fd5b620001dc6200027d60201b60201c565b15620001f357620001f26200029360201b60201c565b5b60006001800160006101000a81548160ff021916908360028111156200021557fe5b021790555067016345785d8a0000600160020181905550600060016003018190555030600160040160006101000a81548173ffffffffffffffffffffffffffffffffffffffff021916908373ffffffffffffffffffffffffffffffffffffffff160217905550565b60008060149054906101000a900460ff16905090565b600060149054906101000a900460ff1662000316576040517f08c379a00000000000000000000000000000000000000000000000000000000081526004018080602001828103825260148152602001807f5061757361626c653a206e6f742070617573656400000000000000000000000081525060200191505060405180910390fd5b60008060146101000a81548160ff0219169083151502179055507f5db9ee0a495bf2e6ff9c91a7834c1ba4fdd244a5e8aa4e537bd38aeae4b073aa62000361620000f260201b60201c565b604051808273ffffffffffffffffffffffffffffffffffffffff1673ffffffffffffffffffffffffffffffffffffffff16815260200191505060405180910390a1565b61183380620003b46000396000f3fe6080604052600436106100c25760003560e01c80637a0d768d1161007f578063c559e54b11610059578063c559e54b1461027c578063cd4593c314610286578063f2081d1b1461029d578063f2fde38b146102b4576100c2565b80637a0d768d1461018d5780638da5cb5b1461020e578063c0f09e1b14610265576100c2565b80634ddfcaf7146100c7578063534c6e4f146100de5780635c975abb146101195780636423db34146101485780636dd013b51461015f578063715018a614610176575b600080fd5b3480156100d357600080fd5b506100dc610305565b005b3480156100ea57600080fd5b506101176004803603602081101561010157600080fd5b8101908080359060200190929190505050610523565b005b34801561012557600080fd5b5061012e61067c565b604051808215151515815260200191505060405180910390f35b34801561015457600080fd5b5061015d610692565b005b34801561016b57600080fd5b506101746107fa565b005b34801561018257600080fd5b5061018b610972565b005b34801561019957600080fd5b506101a2610afa565b604051808681526020018560028111156101b857fe5b60ff1681526020018481526020018381526020018273ffffffffffffffffffffffffffffffffffffffff1673ffffffffffffffffffffffffffffffffffffffff1681526020019550505050505060405180910390f35b34801561021a57600080fd5b50610223610b4b565b604051808273ffffffffffffffffffffffffffffffffffffffff1673ffffffffffffffffffffffffffffffffffffffff16815260200191505060405180910390f35b34801561027157600080fd5b5061027a610b74565b005b610284610ce8565b005b34801561029257600080fd5b5061029b610f09565b005b3480156102a957600080fd5b506102b261107d565b005b3480156102c057600080fd5b50610303600480360360208110156102d757600080fd5b81019080803573ffffffffffffffffffffffffffffffffffffffff169060200190929190505050611150565b005b600060016003015411610363576040517f08c379a00000000000000000000000000000000000000000000000000000000081526004018080602001828103825260238152602001806117926023913960400191505060405180910390fd5b600160040160009054906101000a900473ffffffffffffffffffffffffffffffffffffffff1673ffffffffffffffffffffffffffffffffffffffff163373ffffffffffffffffffffffffffffffffffffffff161461040c576040517f08c379a00000000000000000000000000000000000000000000000000000000081526004018080602001828103825260238152602001806117db6023913960400191505060405180910390fd5b600060149054906101000a900460ff161561048f576040517f08c379a00000000000000000000000000000000000000000000000000000000081526004018080602001828103825260108152602001807f5061757361626c653a207061757365640000000000000000000000000000000081525060200191505060405180910390fd5b61049f600160030154600161135d565b600160030181905550600060016003015414156105215760006001800160006101000a81548160ff021916908360028111156104d757fe5b021790555030600160040160006101000a81548173ffffffffffffffffffffffffffffffffffffffff021916908373ffffffffffffffffffffffffffffffffffffffff1602179055505b565b61052b6113a7565b73ffffffffffffffffffffffffffffffffffffffff166000809054906101000a900473ffffffffffffffffffffffffffffffffffffffff1673ffffffffffffffffffffffffffffffffffffffff16146105ec576040517f08c379a00000000000000000000000000000000000000000000000000000000081526004018080602001828103825260208152602001807f4f776e61626c653a2063616c6c6572206973206e6f7420746865206f776e657281525060200191505060405180910390fd5b600060149054906101000a900460ff161561066f576040517f08c379a00000000000000000000000000000000000000000000000000000000081526004018080602001828103825260108152602001807f5061757361626c653a207061757365640000000000000000000000000000000081525060200191505060405180910390fd5b8060016002018190555050565b60008060149054906101000a900460ff16905090565b61069a6113a7565b73ffffffffffffffffffffffffffffffffffffffff166000809054906101000a900473ffffffffffffffffffffffffffffffffffffffff1673ffffffffffffffffffffffffffffffffffffffff161461075b576040517f08c379a00000000000000000000000000000000000000000000000000000000081526004018080602001828103825260208152602001807f4f776e61626c653a2063616c6c6572206973206e6f7420746865206f776e657281525060200191505060405180910390fd5b61076361067c565b15610771576107706113af565b5b60006001800160006101000a81548160ff0219169083600281111561079257fe5b021790555067016345785d8a0000600160020181905550600060016003018190555030600160040160006101000a81548173ffffffffffffffffffffffffffffffffffffffff021916908373ffffffffffffffffffffffffffffffffffffffff160217905550565b6108026113a7565b73ffffffffffffffffffffffffffffffffffffffff166000809054906101000a900473ffffffffffffffffffffffffffffffffffffffff1673ffffffffffffffffffffffffffffffffffffffff16146108c3576040517f08c379a00000000000000000000000000000000000000000000000000000000081526004018080602001828103825260208152602001807f4f776e61626c653a2063616c6c6572206973206e6f7420746865206f776e657281525060200191505060405180910390fd5b60003373ffffffffffffffffffffffffffffffffffffffff166108fc479081150290604051600060405180830381858888f1935050505090508061096f576040517f08c379a00000000000000000000000000000000000000000000000000000000081526004018080602001828103825260108152602001807f5472616e73666572206661696c65642e0000000000000000000000000000000081525060200191505060405180910390fd5b50565b61097a6113a7565b73ffffffffffffffffffffffffffffffffffffffff166000809054906101000a900473ffffffffffffffffffffffffffffffffffffffff1673ffffffffffffffffffffffffffffffffffffffff1614610a3b576040517f08c379a00000000000000000000000000000000000000000000000000000000081526004018080602001828103825260208152602001807f4f776e61626c653a2063616c6c6572206973206e6f7420746865206f776e657281525060200191505060405180910390fd5b600073ffffffffffffffffffffffffffffffffffffffff166000809054906101000a900473ffffffffffffffffffffffffffffffffffffffff1673ffffffffffffffffffffffffffffffffffffffff167f8be0079c531659141344cd1fd0a4f28419497f9722a3daafe3b4186f6b6457e060405160405180910390a360008060006101000a81548173ffffffffffffffffffffffffffffffffffffffff021916908373ffffffffffffffffffffffffffffffffffffffff160217905550565b60018060000154908060010160009054906101000a900460ff16908060020154908060030154908060040160009054906101000a900473ffffffffffffffffffffffffffffffffffffffff16905085565b60008060009054906101000a900473ffffffffffffffffffffffffffffffffffffffff16905090565b610b7c6113a7565b73ffffffffffffffffffffffffffffffffffffffff166000809054906101000a900473ffffffffffffffffffffffffffffffffffffffff1673ffffffffffffffffffffffffffffffffffffffff1614610c3d576040517f08c379a00000000000000000000000000000000000000000000000000000000081526004018080602001828103825260208152602001807f4f776e61626c653a2063616c6c6572206973206e6f7420746865206f776e657281525060200191505060405180910390fd5b600060149054906101000a900460ff1615610cc0576040517f08c379a00000000000000000000000000000000000000000000000000000000081526004018080602001828103825260108152602001807f5061757361626c653a207061757365640000000000000000000000000000000081525060200191505060405180910390fd5b60018060010160006101000a81548160ff02191690836002811115610ce157fe5b0217905550565b34600160020154811015610d64576040517f08c379a000000000000000000000000000000000000000000000000000000000815260040180806020018281038252601f8152602001807f626574616c696e67206973206d696e6465722064616e206465207072696a730081525060200191505060405180910390fd5b60006002811115610d7157fe5b6001800160009054906101000a900460ff166002811115610d8e57fe5b14610e01576040517f08c379a00000000000000000000000000000000000000000000000000000000081526004018080602001828103825260128152602001807f4b616d6572206973206e696574207672696a000000000000000000000000000081525060200191505060405180910390fd5b600060149054906101000a900460ff1615610e84576040517f08c379a00000000000000000000000000000000000000000000000000000000081526004018080602001828103825260108152602001807f5061757361626c653a207061757365640000000000000000000000000000000081525060200191505060405180910390fd5b60018060010160006101000a81548160ff02191690836002811115610ea557fe5b0217905550610eb9346001600201546114b7565b60016003018190555033600160040160006101000a81548173ffffffffffffffffffffffffffffffffffffffff021916908373ffffffffffffffffffffffffffffffffffffffff16021790555050565b610f116113a7565b73ffffffffffffffffffffffffffffffffffffffff166000809054906101000a900473ffffffffffffffffffffffffffffffffffffffff1673ffffffffffffffffffffffffffffffffffffffff1614610fd2576040517f08c379a00000000000000000000000000000000000000000000000000000000081526004018080602001828103825260208152602001807f4f776e61626c653a2063616c6c6572206973206e6f7420746865206f776e657281525060200191505060405180910390fd5b600060149054906101000a900460ff1615611055576040517f08c379a00000000000000000000000000000000000000000000000000000000081526004018080602001828103825260108152602001807f5061757361626c653a207061757365640000000000000000000000000000000081525060200191505060405180910390fd5b60006001800160006101000a81548160ff0219169083600281111561107657fe5b0217905550565b6110856113a7565b73ffffffffffffffffffffffffffffffffffffffff166000809054906101000a900473ffffffffffffffffffffffffffffffffffffffff1673ffffffffffffffffffffffffffffffffffffffff1614611146576040517f08c379a00000000000000000000000000000000000000000000000000000000081526004018080602001828103825260208152602001807f4f776e61626c653a2063616c6c6572206973206e6f7420746865206f776e657281525060200191505060405180910390fd5b61114e611501565b565b6111586113a7565b73ffffffffffffffffffffffffffffffffffffffff166000809054906101000a900473ffffffffffffffffffffffffffffffffffffffff1673ffffffffffffffffffffffffffffffffffffffff1614611219576040517f08c379a00000000000000000000000000000000000000000000000000000000081526004018080602001828103825260208152602001807f4f776e61626c653a2063616c6c6572206973206e6f7420746865206f776e657281525060200191505060405180910390fd5b600073ffffffffffffffffffffffffffffffffffffffff168173ffffffffffffffffffffffffffffffffffffffff16141561129f576040517f08c379a00000000000000000000000000000000000000000000000000000000081526004018080602001828103825260268152602001806117b56026913960400191505060405180910390fd5b8073ffffffffffffffffffffffffffffffffffffffff166000809054906101000a900473ffffffffffffffffffffffffffffffffffffffff1673ffffffffffffffffffffffffffffffffffffffff167f8be0079c531659141344cd1fd0a4f28419497f9722a3daafe3b4186f6b6457e060405160405180910390a3806000806101000a81548173ffffffffffffffffffffffffffffffffffffffff021916908373ffffffffffffffffffffffffffffffffffffffff16021790555050565b600061139f83836040518060400160405280601e81526020017f536166654d6174683a207375627472616374696f6e206f766572666c6f77000081525061160b565b905092915050565b600033905090565b600060149054906101000a900460ff16611431576040517f08c379a00000000000000000000000000000000000000000000000000000000081526004018080602001828103825260148152602001807f5061757361626c653a206e6f742070617573656400000000000000000000000081525060200191505060405180910390fd5b60008060146101000a81548160ff0219169083151502179055507f5db9ee0a495bf2e6ff9c91a7834c1ba4fdd244a5e8aa4e537bd38aeae4b073aa6114746113a7565b604051808273ffffffffffffffffffffffffffffffffffffffff1673ffffffffffffffffffffffffffffffffffffffff16815260200191505060405180910390a1565b60006114f983836040518060400160405280601a81526020017f536166654d6174683a206469766973696f6e206279207a65726f0000000000008152506116cb565b905092915050565b600060149054906101000a900460ff1615611584576040517f08c379a00000000000000000000000000000000000000000000000000000000081526004018080602001828103825260108152602001807f5061757361626c653a207061757365640000000000000000000000000000000081525060200191505060405180910390fd5b6001600060146101000a81548160ff0219169083151502179055507f62e78cea01bee320cd4e420270b5ea74000d11b0c9f74754ebdbfc544b05a2586115c86113a7565b604051808273ffffffffffffffffffffffffffffffffffffffff1673ffffffffffffffffffffffffffffffffffffffff16815260200191505060405180910390a1565b60008383111582906116b8576040517f08c379a00000000000000000000000000000000000000000000000000000000081526004018080602001828103825283818151815260200191508051906020019080838360005b8381101561167d578082015181840152602081019050611662565b50505050905090810190601f1680156116aa5780820380516001836020036101000a031916815260200191505b509250505060405180910390fd5b5060008385039050809150509392505050565b60008083118290611777576040517f08c379a00000000000000000000000000000000000000000000000000000000081526004018080602001828103825283818151815260200191508051906020019080838360005b8381101561173c578082015181840152602081019050611721565b50505050905090810190601f1680156117695780820380516001836020036101000a031916815260200191505b509250505060405180910390fd5b50600083858161178357fe5b04905080915050939250505056fe416c6c65206765626f656b746520646167656e207a696a6e206f706765627275696b744f776e61626c653a206e6577206f776e657220697320746865207a65726f2061646472657373456e6b656c20646520626f656b6572206d61672064657a6520616374696520646f656ea26469706673582212208ac8789c191d8ada9da9cdf91f331a80ec4db47fa8c1168b4e7ba6844a7fa53364736f6c634300060b0033",
  "immutableReferences": {},
  "source": "// SPDX-License-Identifier: MIT\npragma solidity 0.6.11;\nimport \"@openzeppelin/contracts/access/Ownable.sol\";\nimport \"@openzeppelin/contracts/utils/Pausable.sol\";\nimport \"@openzeppelin/contracts/math/SafeMath.sol\";\n\ncontract HotelKamer is Ownable, Pausable {\n    using SafeMath for uint256;\n\n    enum KamerStatus {Vrij, Geboekt, Onbeschikbaar}\n\n    struct Kamer {\n        uint256 Nummer;\n        KamerStatus Status;\n        uint256 Prijs; // in wei\n        uint256 AantalGeboekteDagen;\n        address Boeker;\n    }\n\n    Kamer public kamer;\n\n    constructor() public Pausable() {\n        Reset();\n    }\n\n    modifier BetalingHogerDanPrijs(uint256 _betaling) {\n        require(_betaling >= kamer.Prijs, \"betaling is minder dan de prijs\");\n        _;\n    }\n    modifier KamerMoetVrijZijn() {\n        require(kamer.Status == KamerStatus.Vrij, \"Kamer is niet vrij\");\n        _;\n    }\n    modifier BeschikbareGeboekteDagen() {\n        require(\n            kamer.AantalGeboekteDagen > 0,\n            \"Alle geboekte dagen zijn opgebruikt\"\n        );\n        _;\n    }\n    modifier EnkelDoorBoeker() {\n        require(\n            msg.sender == kamer.Boeker,\n            \"Enkel de boeker mag deze actie doen\"\n        );\n        _;\n    }\n\n    function ZetPrijs(uint256 _prijs) external onlyOwner whenNotPaused() {\n        kamer.Prijs = _prijs;\n    }\n\n    function ZetGeboekt() external onlyOwner whenNotPaused() {\n        kamer.Status = KamerStatus.Geboekt;\n    }\n\n    function ZetVrij() external onlyOwner whenNotPaused() {\n        kamer.Status = KamerStatus.Vrij;\n    }\n\n    function Reset() public onlyOwner {\n        if (paused()) _unpause();\n        kamer.Status = KamerStatus.Vrij;\n        kamer.Prijs = 0.1 ether;\n        kamer.AantalGeboekteDagen = 0;\n        kamer.Boeker = address(this); // default to contract address\n    }\n\n    function MaakBoeking()\n        external\n        payable\n        BetalingHogerDanPrijs(msg.value)\n        KamerMoetVrijZijn\n        whenNotPaused()\n    {\n        kamer.Status = KamerStatus.Geboekt;\n        kamer.AantalGeboekteDagen = SafeMath.div(msg.value, kamer.Prijs);\n        kamer.Boeker = msg.sender;\n    }\n\n    function Uitbetaling() external onlyOwner() {\n        // (bool success, ) = msg.sender.call{value: address(this).balance}(\"\");\n        bool success = msg.sender.send(address(this).balance);\n        require(success, \"Transfer failed.\");\n    }\n\n    function OpenDeur()\n        external\n        BeschikbareGeboekteDagen\n        EnkelDoorBoeker\n        whenNotPaused()\n    {\n        kamer.AantalGeboekteDagen = SafeMath.sub(kamer.AantalGeboekteDagen, 1);\n        if (kamer.AantalGeboekteDagen == 0) {\n            kamer.Status = KamerStatus.Vrij;\n            kamer.Boeker = address(this); // default to contract address\n        }\n    }\n\n    function HandRem() external onlyOwner() {\n        _pause();\n    }\n}\n",
  "sourcePath": "/Users/renaatmeeuws/Dev/Ethereum/Truffle/HotelKamer/Contract/contracts/HotelKamer.sol",
  "compiler": {
    "name": "solc",
    "version": "0.6.11+commit.5ef660b1.Emscripten.clang"
  },
  "schemaVersion": "3.2.2",
  "updatedAt": "2020-07-19T11:56:29.777Z",
  "networkType": "ethereum",
  "devdoc": {
    "kind": "dev",
    "methods": {
      "owner()": {
        "details": "Returns the address of the current owner."
      },
      "paused()": {
        "details": "Returns true if the contract is paused, and false otherwise."
      },
      "renounceOwnership()": {
        "details": "Leaves the contract without owner. It will not be possible to call `onlyOwner` functions anymore. Can only be called by the current owner. NOTE: Renouncing ownership will leave the contract without an owner, thereby removing any functionality that is only available to the owner."
      },
      "transferOwnership(address)": {
        "details": "Transfers ownership of the contract to a new account (`newOwner`). Can only be called by the current owner."
      }
    },
    "version": 1
  },
  "userdoc": {
    "kind": "user",
    "methods": {},
    "version": 1
  }
}