{
  "contractName": "HotelKamer",
  "abi": [
    {
      "inputs": [],
      "stateMutability": "nonpayable",
      "type": "constructor"
    },
    {
      "anonymous": false,
      "inputs": [
        {
          "indexed": true,
          "internalType": "address",
          "name": "previousOwner",
          "type": "address"
        },
        {
          "indexed": true,
          "internalType": "address",
          "name": "newOwner",
          "type": "address"
        }
      ],
      "name": "OwnershipTransferred",
      "type": "event"
    },
    {
      "inputs": [],
      "name": "kamer",
      "outputs": [
        {
          "internalType": "uint256",
          "name": "Nummer",
          "type": "uint256"
        },
        {
          "internalType": "enum HotelKamer.KamerStatus",
          "name": "Status",
          "type": "uint8"
        },
        {
          "internalType": "uint256",
          "name": "Prijs",
          "type": "uint256"
        }
      ],
      "stateMutability": "view",
      "type": "function",
      "constant": true
    },
    {
      "inputs": [],
      "name": "owner",
      "outputs": [
        {
          "internalType": "address",
          "name": "",
          "type": "address"
        }
      ],
      "stateMutability": "view",
      "type": "function",
      "constant": true
    },
    {
      "inputs": [],
      "name": "renounceOwnership",
      "outputs": [],
      "stateMutability": "nonpayable",
      "type": "function"
    },
    {
      "inputs": [
        {
          "internalType": "address",
          "name": "newOwner",
          "type": "address"
        }
      ],
      "name": "transferOwnership",
      "outputs": [],
      "stateMutability": "nonpayable",
      "type": "function"
    },
    {
      "inputs": [
        {
          "internalType": "uint256",
          "name": "_prijs",
          "type": "uint256"
        }
      ],
      "name": "ZetPrijs",
      "outputs": [],
      "stateMutability": "nonpayable",
      "type": "function"
    },
    {
      "inputs": [],
      "name": "ZetGeboekt",
      "outputs": [],
      "stateMutability": "nonpayable",
      "type": "function"
    },
    {
      "inputs": [],
      "name": "ZetVrij",
      "outputs": [],
      "stateMutability": "nonpayable",
      "type": "function"
    },
    {
      "inputs": [],
      "name": "MaakBoeking",
      "outputs": [],
      "stateMutability": "payable",
      "type": "function",
      "payable": true
    },
    {
      "inputs": [],
      "name": "ToonBalans",
      "outputs": [
        {
          "internalType": "uint256",
          "name": "",
          "type": "uint256"
        }
      ],
      "stateMutability": "view",
      "type": "function",
      "constant": true
    }
  ],
  "bytecode": "0x608060405234801561001057600080fd5b5060006100216100fc60201b60201c565b9050806000806101000a81548173ffffffffffffffffffffffffffffffffffffffff021916908373ffffffffffffffffffffffffffffffffffffffff1602179055508073ffffffffffffffffffffffffffffffffffffffff16600073ffffffffffffffffffffffffffffffffffffffff167f8be0079c531659141344cd1fd0a4f28419497f9722a3daafe3b4186f6b6457e060405160405180910390a35060006001800160006101000a81548160ff021916908360028111156100e057fe5b021790555067016345785d8a0000600160020181905550610104565b600033905090565b610a78806101136000396000f3fe6080604052600436106100865760003560e01c80638da5cb5b116100595780638da5cb5b1461014f578063c0f09e1b146101a6578063c559e54b146101bd578063cd4593c3146101c7578063f2fde38b146101de57610086565b8063389dd05b1461008b578063534c6e4f146100b6578063715018a6146100f15780637a0d768d14610108575b600080fd5b34801561009757600080fd5b506100a061022f565b6040518082815260200191505060405180910390f35b3480156100c257600080fd5b506100ef600480360360208110156100d957600080fd5b8101908080359060200190929190505050610237565b005b3480156100fd57600080fd5b5061010661030d565b005b34801561011457600080fd5b5061011d610495565b6040518084815260200183600281111561013357fe5b60ff168152602001828152602001935050505060405180910390f35b34801561015b57600080fd5b506101646104ba565b604051808273ffffffffffffffffffffffffffffffffffffffff1673ffffffffffffffffffffffffffffffffffffffff16815260200191505060405180910390f35b3480156101b257600080fd5b506101bb6104e3565b005b6101c56105d4565b005b3480156101d357600080fd5b506101dc610716565b005b3480156101ea57600080fd5b5061022d6004803603602081101561020157600080fd5b81019080803573ffffffffffffffffffffffffffffffffffffffff169060200190929190505050610807565b005b600047905090565b61023f610a14565b73ffffffffffffffffffffffffffffffffffffffff166000809054906101000a900473ffffffffffffffffffffffffffffffffffffffff1673ffffffffffffffffffffffffffffffffffffffff1614610300576040517f08c379a00000000000000000000000000000000000000000000000000000000081526004018080602001828103825260208152602001807f4f776e61626c653a2063616c6c6572206973206e6f7420746865206f776e657281525060200191505060405180910390fd5b8060016002018190555050565b610315610a14565b73ffffffffffffffffffffffffffffffffffffffff166000809054906101000a900473ffffffffffffffffffffffffffffffffffffffff1673ffffffffffffffffffffffffffffffffffffffff16146103d6576040517f08c379a00000000000000000000000000000000000000000000000000000000081526004018080602001828103825260208152602001807f4f776e61626c653a2063616c6c6572206973206e6f7420746865206f776e657281525060200191505060405180910390fd5b600073ffffffffffffffffffffffffffffffffffffffff166000809054906101000a900473ffffffffffffffffffffffffffffffffffffffff1673ffffffffffffffffffffffffffffffffffffffff167f8be0079c531659141344cd1fd0a4f28419497f9722a3daafe3b4186f6b6457e060405160405180910390a360008060006101000a81548173ffffffffffffffffffffffffffffffffffffffff021916908373ffffffffffffffffffffffffffffffffffffffff160217905550565b60018060000154908060010160009054906101000a900460ff16908060020154905083565b60008060009054906101000a900473ffffffffffffffffffffffffffffffffffffffff16905090565b6104eb610a14565b73ffffffffffffffffffffffffffffffffffffffff166000809054906101000a900473ffffffffffffffffffffffffffffffffffffffff1673ffffffffffffffffffffffffffffffffffffffff16146105ac576040517f08c379a00000000000000000000000000000000000000000000000000000000081526004018080602001828103825260208152602001807f4f776e61626c653a2063616c6c6572206973206e6f7420746865206f776e657281525060200191505060405180910390fd5b60018060010160006101000a81548160ff021916908360028111156105cd57fe5b0217905550565b34600160020154811015610650576040517f08c379a000000000000000000000000000000000000000000000000000000000815260040180806020018281038252601f8152602001807f626574616c696e67206973206d696e6465722064616e206465207072696a730081525060200191505060405180910390fd5b6000600281111561065d57fe5b6001800160009054906101000a900460ff16600281111561067a57fe5b146106ed576040517f08c379a00000000000000000000000000000000000000000000000000000000081526004018080602001828103825260128152602001807f4b616d6572206973206e696574207672696a000000000000000000000000000081525060200191505060405180910390fd5b60018060010160006101000a81548160ff0219169083600281111561070e57fe5b021790555050565b61071e610a14565b73ffffffffffffffffffffffffffffffffffffffff166000809054906101000a900473ffffffffffffffffffffffffffffffffffffffff1673ffffffffffffffffffffffffffffffffffffffff16146107df576040517f08c379a00000000000000000000000000000000000000000000000000000000081526004018080602001828103825260208152602001807f4f776e61626c653a2063616c6c6572206973206e6f7420746865206f776e657281525060200191505060405180910390fd5b60006001800160006101000a81548160ff0219169083600281111561080057fe5b0217905550565b61080f610a14565b73ffffffffffffffffffffffffffffffffffffffff166000809054906101000a900473ffffffffffffffffffffffffffffffffffffffff1673ffffffffffffffffffffffffffffffffffffffff16146108d0576040517f08c379a00000000000000000000000000000000000000000000000000000000081526004018080602001828103825260208152602001807f4f776e61626c653a2063616c6c6572206973206e6f7420746865206f776e657281525060200191505060405180910390fd5b600073ffffffffffffffffffffffffffffffffffffffff168173ffffffffffffffffffffffffffffffffffffffff161415610956576040517f08c379a0000000000000000000000000000000000000000000000000000000008152600401808060200182810382526026815260200180610a1d6026913960400191505060405180910390fd5b8073ffffffffffffffffffffffffffffffffffffffff166000809054906101000a900473ffffffffffffffffffffffffffffffffffffffff1673ffffffffffffffffffffffffffffffffffffffff167f8be0079c531659141344cd1fd0a4f28419497f9722a3daafe3b4186f6b6457e060405160405180910390a3806000806101000a81548173ffffffffffffffffffffffffffffffffffffffff021916908373ffffffffffffffffffffffffffffffffffffffff16021790555050565b60003390509056fe4f776e61626c653a206e6577206f776e657220697320746865207a65726f2061646472657373a2646970667358221220acd9f214aee669d95362d466d4e517667e1a9dea6719045fd994ba1e55c9872864736f6c634300060a0033",
  "immutableReferences": {},
  "source": "// SPDX-License-Identifier: MIT\npragma solidity ^0.6.0;\nimport \"@openzeppelin/contracts/access/Ownable.sol\";\n\ncontract HotelKamer is Ownable {\n    enum KamerStatus {Vrij, Geboekt, Onbeschikbaar}\n\n    struct Kamer {\n        uint256 Nummer;\n        KamerStatus Status;\n        uint256 Prijs; // in wei\n    }\n\n    Kamer public kamer;\n\n    constructor() public {\n        kamer.Status = KamerStatus.Vrij;\n        kamer.Prijs = 0.1 ether;\n    }\n\n    modifier BetalingHogerDanPrijs(uint256 _betaling) {\n        require(_betaling >= kamer.Prijs, \"betaling is minder dan de prijs\");\n        _;\n    }\n    modifier KamerMoetVrijZijn() {\n        require(kamer.Status == KamerStatus.Vrij, \"Kamer is niet vrij\");\n        _;\n    }\n\n    function ZetPrijs(uint256 _prijs) public onlyOwner {\n        kamer.Prijs = _prijs;\n    }\n\n    function ZetGeboekt() public onlyOwner {\n        kamer.Status = KamerStatus.Geboekt;\n    }\n\n    function ZetVrij() public onlyOwner {\n        kamer.Status = KamerStatus.Vrij;\n    }\n\n    function MaakBoeking()\n        public\n        payable\n        BetalingHogerDanPrijs(msg.value)\n        KamerMoetVrijZijn\n    {\n        kamer.Status = KamerStatus.Geboekt;\n        //  emit Received(msg.sender, msg.value);\n    }\n\n    function ToonBalans() public view returns (uint256) {\n        return address(this).balance;\n    }\n}\n",
  "sourcePath": "/Users/renaatmeeuws/Dev/Ethereum/Truffle/Hotel/contracts/HotelKamer.sol",
  "compiler": {
    "name": "solc",
    "version": "0.6.10+commit.00c0fcaf.Emscripten.clang"
  },
  "schemaVersion": "3.2.1",
  "updatedAt": "2020-07-05T13:03:24.829Z",
  "networkType": "ethereum",
  "devdoc": {
    "methods": {
      "owner()": {
        "details": "Returns the address of the current owner."
      },
      "renounceOwnership()": {
        "details": "Leaves the contract without owner. It will not be possible to call `onlyOwner` functions anymore. Can only be called by the current owner. NOTE: Renouncing ownership will leave the contract without an owner, thereby removing any functionality that is only available to the owner."
      },
      "transferOwnership(address)": {
        "details": "Transfers ownership of the contract to a new account (`newOwner`). Can only be called by the current owner."
      }
    }
  },
  "userdoc": {
    "methods": {}
  }
}